S00C00004C4142332E7372656316
S11300000C9434000C943E000C943E000C943E007E
S11300100C943E000C943E000C943E000C943E0064
S11300200C943E000C943E000C943E000C943E0054
S11300300C943E000C943E000C943E000C943E0044
S11300400C943E000C943E000C943E000C943E0034
S11300500C943E000C943E000C943E000C943E0024
S11300600C943E000C943E0011241FBECFEFD8E048
S1130070DEBFCDBF0E9440000C9457000C940000DA
S113008014B88FEF87B985B1876085B9189903C013
S113009088B1816088B9199903C088B18E7F88B905
S11300A01A99F4CF98B181E0892788B9EFCFF894F1
S10500B0FFCF7C
S9030000FC
