S00C00006C6162362E73726563B3
S11300000C9434000C943E000C943E000C943E007E
S11300100C943E000C943E000C943E000C943E0064
S11300200C943E000C943E000C943E000C943E0054
S11300300C943E000C943E000C943E000C943E0044
S11300400C943E000C943E000C943E000C943E0034
S11300500C943E000C943E000C943E000C943E0024
S11300600C943E000C943E0011241FBECFEFD8E048
S1130070DEBFCDBF0E9440000C949B000C94000096
S11300808FEF8AB971E062E054E048E030E120E2A9
S113009090E480E87BB9AFEEE2EDF0E0A150E040FF
S11300A0F040E1F700C000006BB9AFEEE2EDF0E024
S11300B0A150E040F040E1F700C000005BB9AFEEB2
S11300C0E2EDF0E0A150E040F040E1F700C00000B4
S11300D04BB9AFEEE2EDF0E0A150E040F040E1F7C3
S11300E000C000003BB9AFEEE2EDF0E0A150E0400B
S11300F0F040E1F700C000002BB9AFEEE2EDF0E014
S1130100A150E040F040E1F700C000009BB9AFEE21
S1130110E2EDF0E0A150E040F040E1F700C0000063
S11301208BB9AFEEE2EDF0E0A150E040F040E1F732
S10D013000C00000AFCFF894FFCF29
S9030000FC
